{
	"contracts/FundMeApp/contracts/FundMe.sol": {
		"FundMe": {
			"abi": [
				{
					"inputs": [],
					"name": "fund",
					"outputs": [],
					"stateMutability": "payable",
					"type": "function"
				},
				{
					"inputs": [],
					"name": "minimumUSD",
					"outputs": [
						{
							"internalType": "uint256",
							"name": "",
							"type": "uint256"
						}
					],
					"stateMutability": "view",
					"type": "function"
				}
			],
			"devdoc": {
				"kind": "dev",
				"methods": {},
				"version": 1
			},
			"evm": {
				"assembly": "    /* \"contracts/FundMeApp/contracts/FundMe.sol\":133:510  contract FundMe {... */\n  mstore(0x40, 0x80)\n    /* \"contracts/FundMeApp/contracts/FundMe.sol\":190:192  50 */\n  0x32\n    /* \"contracts/FundMeApp/contracts/FundMe.sol\":162:192  uint256 public minimumUSD = 50 */\n  0x00\n  sstore\n    /* \"contracts/FundMeApp/contracts/FundMe.sol\":133:510  contract FundMe {... */\n  callvalue\n  dup1\n  iszero\n  tag_1\n  jumpi\n  0x00\n  dup1\n  revert\ntag_1:\n  pop\n  dataSize(sub_0)\n  dup1\n  dataOffset(sub_0)\n  0x00\n  codecopy\n  0x00\n  return\nstop\n\nsub_0: assembly {\n        /* \"contracts/FundMeApp/contracts/FundMe.sol\":133:510  contract FundMe {... */\n      mstore(0x40, 0x80)\n      jumpi(tag_1, lt(calldatasize, 0x04))\n      shr(0xe0, calldataload(0x00))\n      dup1\n      0x3430a88c\n      eq\n      tag_2\n      jumpi\n      dup1\n      0xb60d4288\n      eq\n      tag_3\n      jumpi\n    tag_1:\n      0x00\n      dup1\n      revert\n        /* \"contracts/FundMeApp/contracts/FundMe.sol\":162:192  uint256 public minimumUSD = 50 */\n    tag_2:\n      callvalue\n      dup1\n      iszero\n      tag_4\n      jumpi\n      0x00\n      dup1\n      revert\n    tag_4:\n      pop\n      tag_5\n      tag_6\n      jump\t// in\n    tag_5:\n      mload(0x40)\n      tag_7\n      swap2\n      swap1\n      tag_8\n      jump\t// in\n    tag_7:\n      mload(0x40)\n      dup1\n      swap2\n      sub\n      swap1\n      return\n        /* \"contracts/FundMeApp/contracts/FundMe.sol\":199:476  function fund() public payable {... */\n    tag_3:\n      tag_9\n      tag_10\n      jump\t// in\n    tag_9:\n      stop\n        /* \"contracts/FundMeApp/contracts/FundMe.sol\":162:192  uint256 public minimumUSD = 50 */\n    tag_6:\n      sload(0x00)\n      dup2\n      jump\t// out\n        /* \"contracts/FundMeApp/contracts/FundMe.sol\":199:476  function fund() public payable {... */\n    tag_10:\n        /* \"contracts/FundMeApp/contracts/FundMe.sol\":365:375  minimumUSD */\n      sload(0x00)\n        /* \"contracts/FundMeApp/contracts/FundMe.sol\":352:361  msg.value */\n      callvalue\n        /* \"contracts/FundMeApp/contracts/FundMe.sol\":352:375  msg.value >= minimumUSD */\n      lt\n      iszero\n        /* \"contracts/FundMeApp/contracts/FundMe.sol\":344:410  require(msg.value >= minimumUSD, \"You have to atleast send 1 ETH\") */\n      tag_12\n      jumpi\n      mload(0x40)\n      0x08c379a000000000000000000000000000000000000000000000000000000000\n      dup2\n      mstore\n      0x04\n      add\n      tag_13\n      swap1\n      tag_14\n      jump\t// in\n    tag_13:\n      mload(0x40)\n      dup1\n      swap2\n      sub\n      swap1\n      revert\n    tag_12:\n        /* \"contracts/FundMeApp/contracts/FundMe.sol\":199:476  function fund() public payable {... */\n      jump\t// out\n        /* \"#utility.yul\":7:84   */\n    tag_15:\n        /* \"#utility.yul\":44:51   */\n      0x00\n        /* \"#utility.yul\":73:78   */\n      dup2\n        /* \"#utility.yul\":62:78   */\n      swap1\n      pop\n        /* \"#utility.yul\":7:84   */\n      swap2\n      swap1\n      pop\n      jump\t// out\n        /* \"#utility.yul\":90:208   */\n    tag_16:\n        /* \"#utility.yul\":177:201   */\n      tag_23\n        /* \"#utility.yul\":195:200   */\n      dup2\n        /* \"#utility.yul\":177:201   */\n      tag_15\n      jump\t// in\n    tag_23:\n        /* \"#utility.yul\":172:175   */\n      dup3\n        /* \"#utility.yul\":165:202   */\n      mstore\n        /* \"#utility.yul\":90:208   */\n      pop\n      pop\n      jump\t// out\n        /* \"#utility.yul\":214:436   */\n    tag_8:\n        /* \"#utility.yul\":307:311   */\n      0x00\n        /* \"#utility.yul\":345:347   */\n      0x20\n        /* \"#utility.yul\":334:343   */\n      dup3\n        /* \"#utility.yul\":330:348   */\n      add\n        /* \"#utility.yul\":322:348   */\n      swap1\n      pop\n        /* \"#utility.yul\":358:429   */\n      tag_25\n        /* \"#utility.yul\":426:427   */\n      0x00\n        /* \"#utility.yul\":415:424   */\n      dup4\n        /* \"#utility.yul\":411:428   */\n      add\n        /* \"#utility.yul\":402:408   */\n      dup5\n        /* \"#utility.yul\":358:429   */\n      tag_16\n      jump\t// in\n    tag_25:\n        /* \"#utility.yul\":214:436   */\n      swap3\n      swap2\n      pop\n      pop\n      jump\t// out\n        /* \"#utility.yul\":442:611   */\n    tag_17:\n        /* \"#utility.yul\":526:537   */\n      0x00\n        /* \"#utility.yul\":560:566   */\n      dup3\n        /* \"#utility.yul\":555:558   */\n      dup3\n        /* \"#utility.yul\":548:567   */\n      mstore\n        /* \"#utility.yul\":600:604   */\n      0x20\n        /* \"#utility.yul\":595:598   */\n      dup3\n        /* \"#utility.yul\":591:605   */\n      add\n        /* \"#utility.yul\":576:605   */\n      swap1\n      pop\n        /* \"#utility.yul\":442:611   */\n      swap3\n      swap2\n      pop\n      pop\n      jump\t// out\n        /* \"#utility.yul\":617:797   */\n    tag_18:\n        /* \"#utility.yul\":757:789   */\n      0x596f75206861766520746f2061746c656173742073656e642031204554480000\n        /* \"#utility.yul\":753:754   */\n      0x00\n        /* \"#utility.yul\":745:751   */\n      dup3\n        /* \"#utility.yul\":741:755   */\n      add\n        /* \"#utility.yul\":734:790   */\n      mstore\n        /* \"#utility.yul\":617:797   */\n      pop\n      jump\t// out\n        /* \"#utility.yul\":803:1169   */\n    tag_19:\n        /* \"#utility.yul\":945:948   */\n      0x00\n        /* \"#utility.yul\":966:1033   */\n      tag_29\n        /* \"#utility.yul\":1030:1032   */\n      0x1e\n        /* \"#utility.yul\":1025:1028   */\n      dup4\n        /* \"#utility.yul\":966:1033   */\n      tag_17\n      jump\t// in\n    tag_29:\n        /* \"#utility.yul\":959:1033   */\n      swap2\n      pop\n        /* \"#utility.yul\":1042:1135   */\n      tag_30\n        /* \"#utility.yul\":1131:1134   */\n      dup3\n        /* \"#utility.yul\":1042:1135   */\n      tag_18\n      jump\t// in\n    tag_30:\n        /* \"#utility.yul\":1160:1162   */\n      0x20\n        /* \"#utility.yul\":1155:1158   */\n      dup3\n        /* \"#utility.yul\":1151:1163   */\n      add\n        /* \"#utility.yul\":1144:1163   */\n      swap1\n      pop\n        /* \"#utility.yul\":803:1169   */\n      swap2\n      swap1\n      pop\n      jump\t// out\n        /* \"#utility.yul\":1175:1594   */\n    tag_14:\n        /* \"#utility.yul\":1341:1345   */\n      0x00\n        /* \"#utility.yul\":1379:1381   */\n      0x20\n        /* \"#utility.yul\":1368:1377   */\n      dup3\n        /* \"#utility.yul\":1364:1382   */\n      add\n        /* \"#utility.yul\":1356:1382   */\n      swap1\n      pop\n        /* \"#utility.yul\":1428:1437   */\n      dup2\n        /* \"#utility.yul\":1422:1426   */\n      dup2\n        /* \"#utility.yul\":1418:1438   */\n      sub\n        /* \"#utility.yul\":1414:1415   */\n      0x00\n        /* \"#utility.yul\":1403:1412   */\n      dup4\n        /* \"#utility.yul\":1399:1416   */\n      add\n        /* \"#utility.yul\":1392:1439   */\n      mstore\n        /* \"#utility.yul\":1456:1587   */\n      tag_32\n        /* \"#utility.yul\":1582:1586   */\n      dup2\n        /* \"#utility.yul\":1456:1587   */\n      tag_19\n      jump\t// in\n    tag_32:\n        /* \"#utility.yul\":1448:1587   */\n      swap1\n      pop\n        /* \"#utility.yul\":1175:1594   */\n      swap2\n      swap1\n      pop\n      jump\t// out\n\n    auxdata: 0xa264697066735822122090463b8c52bac0f6e188bf87f7ecb6b82f6d91a5d57b26507c4eeb6c33a78eff64736f6c63430008080033\n}\n",
				"bytecode": {
					"linkReferences": {},
					"object": "6080604052603260005534801561001557600080fd5b50610197806100256000396000f3fe6080604052600436106100295760003560e01c80633430a88c1461002e578063b60d428814610059575b600080fd5b34801561003a57600080fd5b50610043610063565b60405161005091906100c9565b60405180910390f35b610061610069565b005b60005481565b6000543410156100ae576040517f08c379a00000000000000000000000000000000000000000000000000000000081526004016100a590610141565b60405180910390fd5b565b6000819050919050565b6100c3816100b0565b82525050565b60006020820190506100de60008301846100ba565b92915050565b600082825260208201905092915050565b7f596f75206861766520746f2061746c656173742073656e642031204554480000600082015250565b600061012b601e836100e4565b9150610136826100f5565b602082019050919050565b6000602082019050818103600083015261015a8161011e565b905091905056fea264697066735822122090463b8c52bac0f6e188bf87f7ecb6b82f6d91a5d57b26507c4eeb6c33a78eff64736f6c63430008080033",
					"opcodes": "PUSH1 0x80 PUSH1 0x40 MSTORE PUSH1 0x32 PUSH1 0x0 SSTORE CALLVALUE DUP1 ISZERO PUSH2 0x15 JUMPI PUSH1 0x0 DUP1 REVERT JUMPDEST POP PUSH2 0x197 DUP1 PUSH2 0x25 PUSH1 0x0 CODECOPY PUSH1 0x0 RETURN INVALID PUSH1 0x80 PUSH1 0x40 MSTORE PUSH1 0x4 CALLDATASIZE LT PUSH2 0x29 JUMPI PUSH1 0x0 CALLDATALOAD PUSH1 0xE0 SHR DUP1 PUSH4 0x3430A88C EQ PUSH2 0x2E JUMPI DUP1 PUSH4 0xB60D4288 EQ PUSH2 0x59 JUMPI JUMPDEST PUSH1 0x0 DUP1 REVERT JUMPDEST CALLVALUE DUP1 ISZERO PUSH2 0x3A JUMPI PUSH1 0x0 DUP1 REVERT JUMPDEST POP PUSH2 0x43 PUSH2 0x63 JUMP JUMPDEST PUSH1 0x40 MLOAD PUSH2 0x50 SWAP2 SWAP1 PUSH2 0xC9 JUMP JUMPDEST PUSH1 0x40 MLOAD DUP1 SWAP2 SUB SWAP1 RETURN JUMPDEST PUSH2 0x61 PUSH2 0x69 JUMP JUMPDEST STOP JUMPDEST PUSH1 0x0 SLOAD DUP2 JUMP JUMPDEST PUSH1 0x0 SLOAD CALLVALUE LT ISZERO PUSH2 0xAE JUMPI PUSH1 0x40 MLOAD PUSH32 0x8C379A000000000000000000000000000000000000000000000000000000000 DUP2 MSTORE PUSH1 0x4 ADD PUSH2 0xA5 SWAP1 PUSH2 0x141 JUMP JUMPDEST PUSH1 0x40 MLOAD DUP1 SWAP2 SUB SWAP1 REVERT JUMPDEST JUMP JUMPDEST PUSH1 0x0 DUP2 SWAP1 POP SWAP2 SWAP1 POP JUMP JUMPDEST PUSH2 0xC3 DUP2 PUSH2 0xB0 JUMP JUMPDEST DUP3 MSTORE POP POP JUMP JUMPDEST PUSH1 0x0 PUSH1 0x20 DUP3 ADD SWAP1 POP PUSH2 0xDE PUSH1 0x0 DUP4 ADD DUP5 PUSH2 0xBA JUMP JUMPDEST SWAP3 SWAP2 POP POP JUMP JUMPDEST PUSH1 0x0 DUP3 DUP3 MSTORE PUSH1 0x20 DUP3 ADD SWAP1 POP SWAP3 SWAP2 POP POP JUMP JUMPDEST PUSH32 0x596F75206861766520746F2061746C656173742073656E642031204554480000 PUSH1 0x0 DUP3 ADD MSTORE POP JUMP JUMPDEST PUSH1 0x0 PUSH2 0x12B PUSH1 0x1E DUP4 PUSH2 0xE4 JUMP JUMPDEST SWAP2 POP PUSH2 0x136 DUP3 PUSH2 0xF5 JUMP JUMPDEST PUSH1 0x20 DUP3 ADD SWAP1 POP SWAP2 SWAP1 POP JUMP JUMPDEST PUSH1 0x0 PUSH1 0x20 DUP3 ADD SWAP1 POP DUP2 DUP2 SUB PUSH1 0x0 DUP4 ADD MSTORE PUSH2 0x15A DUP2 PUSH2 0x11E JUMP JUMPDEST SWAP1 POP SWAP2 SWAP1 POP JUMP INVALID LOG2 PUSH5 0x6970667358 0x22 SLT KECCAK256 SWAP1 CHAINID EXTCODESIZE DUP13 MSTORE 0xBA 0xC0 0xF6 0xE1 DUP9 0xBF DUP8 0xF7 0xEC 0xB6 0xB8 0x2F PUSH14 0x91A5D57B26507C4EEB6C33A78EFF PUSH5 0x736F6C6343 STOP ADDMOD ADDMOD STOP CALLER "
				},
				"gasEstimates": {
					"creation": {
						"codeDepositCost": "81400",
						"executionCost": "22235",
						"totalCost": "103635"
					},
					"external": {
						"fund()": "2534",
						"minimumUSD()": "2407"
					}
				},
				"methodIdentifiers": {
					"fund()": "b60d4288",
					"minimumUSD()": "3430a88c"
				}
			},
			"storageLayout": {
				"storage": [
					{
						"astId": 4,
						"contract": "contracts/FundMeApp/contracts/FundMe.sol:FundMe",
						"label": "minimumUSD",
						"offset": 0,
						"slot": "0",
						"type": "t_uint256"
					}
				],
				"types": {
					"t_uint256": {
						"encoding": "inplace",
						"label": "uint256",
						"numberOfBytes": "32"
					}
				}
			},
			"userdoc": {
				"kind": "user",
				"methods": {},
				"version": 1
			}
		}
	}
}