{
	"contracts/default_workspace/contracts/SimpleStorage.sol": {
		"SimpleStorage": {
			"abi": [
				{
					"inputs": [
						{
							"internalType": "string",
							"name": "_name",
							"type": "string"
						},
						{
							"internalType": "uint256",
							"name": "_id",
							"type": "uint256"
						},
						{
							"internalType": "uint256",
							"name": "_favouriteNumber",
							"type": "uint256"
						}
					],
					"name": "addPerson",
					"outputs": [],
					"stateMutability": "nonpayable",
					"type": "function"
				},
				{
					"inputs": [
						{
							"internalType": "string",
							"name": "",
							"type": "string"
						}
					],
					"name": "nameToId",
					"outputs": [
						{
							"internalType": "uint256",
							"name": "",
							"type": "uint256"
						}
					],
					"stateMutability": "view",
					"type": "function"
				},
				{
					"inputs": [
						{
							"internalType": "uint256",
							"name": "",
							"type": "uint256"
						}
					],
					"name": "person",
					"outputs": [
						{
							"internalType": "uint256",
							"name": "id",
							"type": "uint256"
						},
						{
							"internalType": "string",
							"name": "name",
							"type": "string"
						},
						{
							"internalType": "uint256",
							"name": "favoriteNumber",
							"type": "uint256"
						}
					],
					"stateMutability": "view",
					"type": "function"
				},
				{
					"inputs": [],
					"name": "retrieve",
					"outputs": [
						{
							"internalType": "uint256",
							"name": "",
							"type": "uint256"
						}
					],
					"stateMutability": "view",
					"type": "function"
				},
				{
					"inputs": [
						{
							"internalType": "uint256",
							"name": "_favoriteNumber",
							"type": "uint256"
						}
					],
					"name": "store",
					"outputs": [],
					"stateMutability": "nonpayable",
					"type": "function"
				}
			],
			"devdoc": {
				"kind": "dev",
				"methods": {},
				"version": 1
			},
			"evm": {
				"assembly": "    /* \"contracts/default_workspace/contracts/SimpleStorage.sol\":156:3115  contract SimpleStorage { //... */\n  mstore(0x40, 0x80)\n  callvalue\n  dup1\n  iszero\n  tag_1\n  jumpi\n  0x00\n  dup1\n  revert\ntag_1:\n  pop\n  dataSize(sub_0)\n  dup1\n  dataOffset(sub_0)\n  0x00\n  codecopy\n  0x00\n  return\nstop\n\nsub_0: assembly {\n        /* \"contracts/default_workspace/contracts/SimpleStorage.sol\":156:3115  contract SimpleStorage { //... */\n      mstore(0x40, 0x80)\n      callvalue\n      dup1\n      iszero\n      tag_1\n      jumpi\n      0x00\n      dup1\n      revert\n    tag_1:\n      pop\n      jumpi(tag_2, lt(calldatasize, 0x04))\n      shr(0xe0, calldataload(0x00))\n      dup1\n      0x092a1820\n      eq\n      tag_3\n      jumpi\n      dup1\n      0x2e64cec1\n      eq\n      tag_4\n      jumpi\n      dup1\n      0x6057361d\n      eq\n      tag_5\n      jumpi\n      dup1\n      0xabbc0a8a\n      eq\n      tag_6\n      jumpi\n      dup1\n      0xf6d8f2cb\n      eq\n      tag_7\n      jumpi\n    tag_2:\n      0x00\n      dup1\n      revert\n        /* \"contracts/default_workspace/contracts/SimpleStorage.sol\":1540:1562  People[] public person */\n    tag_3:\n      tag_8\n      0x04\n      dup1\n      calldatasize\n      sub\n      dup2\n      add\n      swap1\n      tag_9\n      swap2\n      swap1\n      tag_10\n      jump\t// in\n    tag_9:\n      tag_11\n      jump\t// in\n    tag_8:\n      mload(0x40)\n      tag_12\n      swap4\n      swap3\n      swap2\n      swap1\n      tag_13\n      jump\t// in\n    tag_12:\n      mload(0x40)\n      dup1\n      swap2\n      sub\n      swap1\n      return\n        /* \"contracts/default_workspace/contracts/SimpleStorage.sol\":2944:3033  function retrieve() public view returns (uint256){... */\n    tag_4:\n      tag_14\n      tag_15\n      jump\t// in\n    tag_14:\n      mload(0x40)\n      tag_16\n      swap2\n      swap1\n      tag_17\n      jump\t// in\n    tag_16:\n      mload(0x40)\n      dup1\n      swap2\n      sub\n      swap1\n      return\n        /* \"contracts/default_workspace/contracts/SimpleStorage.sol\":2824:2930  function store(uint256 _favoriteNumber) public virtual {... */\n    tag_5:\n      tag_18\n      0x04\n      dup1\n      calldatasize\n      sub\n      dup2\n      add\n      swap1\n      tag_19\n      swap2\n      swap1\n      tag_10\n      jump\t// in\n    tag_19:\n      tag_20\n      jump\t// in\n    tag_18:\n      stop\n        /* \"contracts/default_workspace/contracts/SimpleStorage.sol\":2469:2814  function addPerson(string memory _name, uint256 _id, uint256 _favouriteNumber) public {//since function variables(parameters) only exists temporaryr we use memory keyword... */\n    tag_6:\n      tag_21\n      0x04\n      dup1\n      calldatasize\n      sub\n      dup2\n      add\n      swap1\n      tag_22\n      swap2\n      swap1\n      tag_23\n      jump\t// in\n    tag_22:\n      tag_24\n      jump\t// in\n    tag_21:\n      stop\n        /* \"contracts/default_workspace/contracts/SimpleStorage.sol\":2417:2460  mapping (string => uint256) public nameToId */\n    tag_7:\n      tag_25\n      0x04\n      dup1\n      calldatasize\n      sub\n      dup2\n      add\n      swap1\n      tag_26\n      swap2\n      swap1\n      tag_27\n      jump\t// in\n    tag_26:\n      tag_28\n      jump\t// in\n    tag_25:\n      mload(0x40)\n      tag_29\n      swap2\n      swap1\n      tag_17\n      jump\t// in\n    tag_29:\n      mload(0x40)\n      dup1\n      swap2\n      sub\n      swap1\n      return\n        /* \"contracts/default_workspace/contracts/SimpleStorage.sol\":1540:1562  People[] public person */\n    tag_11:\n      0x01\n      dup2\n      dup2\n      sload\n      dup2\n      lt\n      tag_30\n      jumpi\n      0x00\n      dup1\n      revert\n    tag_30:\n      swap1\n      0x00\n      mstore\n      keccak256(0x00, 0x20)\n      swap1\n      0x03\n      mul\n      add\n      0x00\n      swap2\n      pop\n      swap1\n      pop\n      dup1\n      0x00\n      add\n      sload\n      swap1\n      dup1\n      0x01\n      add\n      dup1\n      sload\n      tag_32\n      swap1\n      tag_33\n      jump\t// in\n    tag_32:\n      dup1\n      0x1f\n      add\n      0x20\n      dup1\n      swap2\n      div\n      mul\n      0x20\n      add\n      mload(0x40)\n      swap1\n      dup2\n      add\n      0x40\n      mstore\n      dup1\n      swap3\n      swap2\n      swap1\n      dup2\n      dup2\n      mstore\n      0x20\n      add\n      dup3\n      dup1\n      sload\n      tag_34\n      swap1\n      tag_33\n      jump\t// in\n    tag_34:\n      dup1\n      iszero\n      tag_35\n      jumpi\n      dup1\n      0x1f\n      lt\n      tag_36\n      jumpi\n      0x0100\n      dup1\n      dup4\n      sload\n      div\n      mul\n      dup4\n      mstore\n      swap2\n      0x20\n      add\n      swap2\n      jump(tag_35)\n    tag_36:\n      dup3\n      add\n      swap2\n      swap1\n      0x00\n      mstore\n      keccak256(0x00, 0x20)\n      swap1\n    tag_37:\n      dup2\n      sload\n      dup2\n      mstore\n      swap1\n      0x01\n      add\n      swap1\n      0x20\n      add\n      dup1\n      dup4\n      gt\n      tag_37\n      jumpi\n      dup3\n      swap1\n      sub\n      0x1f\n      and\n      dup3\n      add\n      swap2\n    tag_35:\n      pop\n      pop\n      pop\n      pop\n      pop\n      swap1\n      dup1\n      0x02\n      add\n      sload\n      swap1\n      pop\n      dup4\n      jump\t// out\n        /* \"contracts/default_workspace/contracts/SimpleStorage.sol\":2944:3033  function retrieve() public view returns (uint256){... */\n    tag_15:\n        /* \"contracts/default_workspace/contracts/SimpleStorage.sol\":2985:2992  uint256 */\n      0x00\n        /* \"contracts/default_workspace/contracts/SimpleStorage.sol\":3011:3025  favoriteNumber */\n      dup1\n      sload\n        /* \"contracts/default_workspace/contracts/SimpleStorage.sol\":3004:3025  return favoriteNumber */\n      swap1\n      pop\n        /* \"contracts/default_workspace/contracts/SimpleStorage.sol\":2944:3033  function retrieve() public view returns (uint256){... */\n      swap1\n      jump\t// out\n        /* \"contracts/default_workspace/contracts/SimpleStorage.sol\":2824:2930  function store(uint256 _favoriteNumber) public virtual {... */\n    tag_20:\n        /* \"contracts/default_workspace/contracts/SimpleStorage.sol\":2907:2922  _favoriteNumber */\n      dup1\n        /* \"contracts/default_workspace/contracts/SimpleStorage.sol\":2890:2904  favoriteNumber */\n      0x00\n        /* \"contracts/default_workspace/contracts/SimpleStorage.sol\":2890:2922  favoriteNumber = _favoriteNumber */\n      dup2\n      swap1\n      sstore\n      pop\n        /* \"contracts/default_workspace/contracts/SimpleStorage.sol\":2824:2930  function store(uint256 _favoriteNumber) public virtual {... */\n      pop\n      jump\t// out\n        /* \"contracts/default_workspace/contracts/SimpleStorage.sol\":2469:2814  function addPerson(string memory _name, uint256 _id, uint256 _favouriteNumber) public {//since function variables(parameters) only exists temporaryr we use memory keyword... */\n    tag_24:\n        /* \"contracts/default_workspace/contracts/SimpleStorage.sol\":2649:2672  People memory newPerson */\n      0x00\n        /* \"contracts/default_workspace/contracts/SimpleStorage.sol\":2675:2711  People(_id, _name, _favouriteNumber) */\n      mload(0x40)\n      dup1\n      0x60\n      add\n      0x40\n      mstore\n      dup1\n        /* \"contracts/default_workspace/contracts/SimpleStorage.sol\":2682:2685  _id */\n      dup5\n        /* \"contracts/default_workspace/contracts/SimpleStorage.sol\":2675:2711  People(_id, _name, _favouriteNumber) */\n      dup2\n      mstore\n      0x20\n      add\n        /* \"contracts/default_workspace/contracts/SimpleStorage.sol\":2687:2692  _name */\n      dup6\n        /* \"contracts/default_workspace/contracts/SimpleStorage.sol\":2675:2711  People(_id, _name, _favouriteNumber) */\n      dup2\n      mstore\n      0x20\n      add\n        /* \"contracts/default_workspace/contracts/SimpleStorage.sol\":2694:2710  _favouriteNumber */\n      dup4\n        /* \"contracts/default_workspace/contracts/SimpleStorage.sol\":2675:2711  People(_id, _name, _favouriteNumber) */\n      dup2\n      mstore\n      pop\n        /* \"contracts/default_workspace/contracts/SimpleStorage.sol\":2649:2711  People memory newPerson = People(_id, _name, _favouriteNumber) */\n      swap1\n      pop\n        /* \"contracts/default_workspace/contracts/SimpleStorage.sol\":2722:2728  person */\n      0x01\n        /* \"contracts/default_workspace/contracts/SimpleStorage.sol\":2734:2743  newPerson */\n      dup2\n        /* \"contracts/default_workspace/contracts/SimpleStorage.sol\":2722:2744  person.push(newPerson) */\n      swap1\n      dup1\n      0x01\n      dup2\n      sload\n      add\n      dup1\n      dup3\n      sstore\n      dup1\n      swap2\n      pop\n      pop\n      0x01\n      swap1\n      sub\n      swap1\n      0x00\n      mstore\n      keccak256(0x00, 0x20)\n      swap1\n      0x03\n      mul\n      add\n      0x00\n      swap1\n      swap2\n      swap1\n      swap2\n      swap1\n      swap2\n      pop\n      0x00\n      dup3\n      add\n      mload\n      dup2\n      0x00\n      add\n      sstore\n      0x20\n      dup3\n      add\n      mload\n      dup2\n      0x01\n      add\n      swap1\n      dup1\n      mload\n      swap1\n      0x20\n      add\n      swap1\n      tag_42\n      swap3\n      swap2\n      swap1\n      tag_43\n      jump\t// in\n    tag_42:\n      pop\n      0x40\n      dup3\n      add\n      mload\n      dup2\n      0x02\n      add\n      sstore\n      pop\n      pop\n        /* \"contracts/default_workspace/contracts/SimpleStorage.sol\":2773:2776  _id */\n      dup3\n        /* \"contracts/default_workspace/contracts/SimpleStorage.sol\":2755:2763  nameToId */\n      0x02\n        /* \"contracts/default_workspace/contracts/SimpleStorage.sol\":2764:2769  _name */\n      dup6\n        /* \"contracts/default_workspace/contracts/SimpleStorage.sol\":2755:2770  nameToId[_name] */\n      mload(0x40)\n      tag_44\n      swap2\n      swap1\n      tag_45\n      jump\t// in\n    tag_44:\n      swap1\n      dup2\n      mstore\n      0x20\n      add\n      mload(0x40)\n      dup1\n      swap2\n      sub\n      swap1\n      keccak256\n        /* \"contracts/default_workspace/contracts/SimpleStorage.sol\":2755:2776  nameToId[_name] = _id */\n      dup2\n      swap1\n      sstore\n      pop\n        /* \"contracts/default_workspace/contracts/SimpleStorage.sol\":2555:2814  {//since function variables(parameters) only exists temporaryr we use memory keyword... */\n      pop\n        /* \"contracts/default_workspace/contracts/SimpleStorage.sol\":2469:2814  function addPerson(string memory _name, uint256 _id, uint256 _favouriteNumber) public {//since function variables(parameters) only exists temporaryr we use memory keyword... */\n      pop\n      pop\n      pop\n      jump\t// out\n        /* \"contracts/default_workspace/contracts/SimpleStorage.sol\":2417:2460  mapping (string => uint256) public nameToId */\n    tag_28:\n      0x02\n      dup2\n      dup1\n      mload\n      0x20\n      dup2\n      add\n      dup3\n      add\n      dup1\n      mload\n      dup5\n      dup3\n      mstore\n      0x20\n      dup4\n      add\n      0x20\n      dup6\n      add\n      keccak256\n      dup2\n      dup4\n      mstore\n      dup1\n      swap6\n      pop\n      pop\n      pop\n      pop\n      pop\n      pop\n      0x00\n      swap2\n      pop\n      swap1\n      pop\n      sload\n      dup2\n      jump\t// out\n    tag_43:\n      dup3\n      dup1\n      sload\n      tag_46\n      swap1\n      tag_33\n      jump\t// in\n    tag_46:\n      swap1\n      0x00\n      mstore\n      keccak256(0x00, 0x20)\n      swap1\n      0x1f\n      add\n      0x20\n      swap1\n      div\n      dup2\n      add\n      swap3\n      dup3\n      tag_48\n      jumpi\n      0x00\n      dup6\n      sstore\n      jump(tag_47)\n    tag_48:\n      dup3\n      0x1f\n      lt\n      tag_49\n      jumpi\n      dup1\n      mload\n      not(0xff)\n      and\n      dup4\n      dup1\n      add\n      or\n      dup6\n      sstore\n      jump(tag_47)\n    tag_49:\n      dup3\n      dup1\n      add\n      0x01\n      add\n      dup6\n      sstore\n      dup3\n      iszero\n      tag_47\n      jumpi\n      swap2\n      dup3\n      add\n    tag_50:\n      dup3\n      dup2\n      gt\n      iszero\n      tag_51\n      jumpi\n      dup3\n      mload\n      dup3\n      sstore\n      swap2\n      0x20\n      add\n      swap2\n      swap1\n      0x01\n      add\n      swap1\n      jump(tag_50)\n    tag_51:\n    tag_47:\n      pop\n      swap1\n      pop\n      tag_52\n      swap2\n      swap1\n      tag_53\n      jump\t// in\n    tag_52:\n      pop\n      swap1\n      jump\t// out\n    tag_53:\n    tag_54:\n      dup1\n      dup3\n      gt\n      iszero\n      tag_55\n      jumpi\n      0x00\n      dup2\n      0x00\n      swap1\n      sstore\n      pop\n      0x01\n      add\n      jump(tag_54)\n    tag_55:\n      pop\n      swap1\n      jump\t// out\n        /* \"#utility.yul\":7:82   */\n    tag_56:\n        /* \"#utility.yul\":40:46   */\n      0x00\n        /* \"#utility.yul\":73:75   */\n      0x40\n        /* \"#utility.yul\":67:76   */\n      mload\n        /* \"#utility.yul\":57:76   */\n      swap1\n      pop\n        /* \"#utility.yul\":7:82   */\n      swap1\n      jump\t// out\n        /* \"#utility.yul\":88:205   */\n    tag_57:\n        /* \"#utility.yul\":197:198   */\n      0x00\n        /* \"#utility.yul\":194:195   */\n      dup1\n        /* \"#utility.yul\":187:199   */\n      revert\n        /* \"#utility.yul\":211:328   */\n    tag_58:\n        /* \"#utility.yul\":320:321   */\n      0x00\n        /* \"#utility.yul\":317:318   */\n      dup1\n        /* \"#utility.yul\":310:322   */\n      revert\n        /* \"#utility.yul\":334:411   */\n    tag_59:\n        /* \"#utility.yul\":371:378   */\n      0x00\n        /* \"#utility.yul\":400:405   */\n      dup2\n        /* \"#utility.yul\":389:405   */\n      swap1\n      pop\n        /* \"#utility.yul\":334:411   */\n      swap2\n      swap1\n      pop\n      jump\t// out\n        /* \"#utility.yul\":417:539   */\n    tag_60:\n        /* \"#utility.yul\":490:514   */\n      tag_86\n        /* \"#utility.yul\":508:513   */\n      dup2\n        /* \"#utility.yul\":490:514   */\n      tag_59\n      jump\t// in\n    tag_86:\n        /* \"#utility.yul\":483:488   */\n      dup2\n        /* \"#utility.yul\":480:515   */\n      eq\n        /* \"#utility.yul\":470:533   */\n      tag_87\n      jumpi\n        /* \"#utility.yul\":529:530   */\n      0x00\n        /* \"#utility.yul\":526:527   */\n      dup1\n        /* \"#utility.yul\":519:531   */\n      revert\n        /* \"#utility.yul\":470:533   */\n    tag_87:\n        /* \"#utility.yul\":417:539   */\n      pop\n      jump\t// out\n        /* \"#utility.yul\":545:684   */\n    tag_61:\n        /* \"#utility.yul\":591:596   */\n      0x00\n        /* \"#utility.yul\":629:635   */\n      dup2\n        /* \"#utility.yul\":616:636   */\n      calldataload\n        /* \"#utility.yul\":607:636   */\n      swap1\n      pop\n        /* \"#utility.yul\":645:678   */\n      tag_89\n        /* \"#utility.yul\":672:677   */\n      dup2\n        /* \"#utility.yul\":645:678   */\n      tag_60\n      jump\t// in\n    tag_89:\n        /* \"#utility.yul\":545:684   */\n      swap3\n      swap2\n      pop\n      pop\n      jump\t// out\n        /* \"#utility.yul\":690:1019   */\n    tag_10:\n        /* \"#utility.yul\":749:755   */\n      0x00\n        /* \"#utility.yul\":798:800   */\n      0x20\n        /* \"#utility.yul\":786:795   */\n      dup3\n        /* \"#utility.yul\":777:784   */\n      dup5\n        /* \"#utility.yul\":773:796   */\n      sub\n        /* \"#utility.yul\":769:801   */\n      slt\n        /* \"#utility.yul\":766:885   */\n      iszero\n      tag_91\n      jumpi\n        /* \"#utility.yul\":804:883   */\n      tag_92\n      tag_57\n      jump\t// in\n    tag_92:\n        /* \"#utility.yul\":766:885   */\n    tag_91:\n        /* \"#utility.yul\":924:925   */\n      0x00\n        /* \"#utility.yul\":949:1002   */\n      tag_93\n        /* \"#utility.yul\":994:1001   */\n      dup5\n        /* \"#utility.yul\":985:991   */\n      dup3\n        /* \"#utility.yul\":974:983   */\n      dup6\n        /* \"#utility.yul\":970:992   */\n      add\n        /* \"#utility.yul\":949:1002   */\n      tag_61\n      jump\t// in\n    tag_93:\n        /* \"#utility.yul\":939:1002   */\n      swap2\n      pop\n        /* \"#utility.yul\":895:1012   */\n      pop\n        /* \"#utility.yul\":690:1019   */\n      swap3\n      swap2\n      pop\n      pop\n      jump\t// out\n        /* \"#utility.yul\":1025:1143   */\n    tag_62:\n        /* \"#utility.yul\":1112:1136   */\n      tag_95\n        /* \"#utility.yul\":1130:1135   */\n      dup2\n        /* \"#utility.yul\":1112:1136   */\n      tag_59\n      jump\t// in\n    tag_95:\n        /* \"#utility.yul\":1107:1110   */\n      dup3\n        /* \"#utility.yul\":1100:1137   */\n      mstore\n        /* \"#utility.yul\":1025:1143   */\n      pop\n      pop\n      jump\t// out\n        /* \"#utility.yul\":1149:1248   */\n    tag_63:\n        /* \"#utility.yul\":1201:1207   */\n      0x00\n        /* \"#utility.yul\":1235:1240   */\n      dup2\n        /* \"#utility.yul\":1229:1241   */\n      mload\n        /* \"#utility.yul\":1219:1241   */\n      swap1\n      pop\n        /* \"#utility.yul\":1149:1248   */\n      swap2\n      swap1\n      pop\n      jump\t// out\n        /* \"#utility.yul\":1254:1423   */\n    tag_64:\n        /* \"#utility.yul\":1338:1349   */\n      0x00\n        /* \"#utility.yul\":1372:1378   */\n      dup3\n        /* \"#utility.yul\":1367:1370   */\n      dup3\n        /* \"#utility.yul\":1360:1379   */\n      mstore\n        /* \"#utility.yul\":1412:1416   */\n      0x20\n        /* \"#utility.yul\":1407:1410   */\n      dup3\n        /* \"#utility.yul\":1403:1417   */\n      add\n        /* \"#utility.yul\":1388:1417   */\n      swap1\n      pop\n        /* \"#utility.yul\":1254:1423   */\n      swap3\n      swap2\n      pop\n      pop\n      jump\t// out\n        /* \"#utility.yul\":1429:1736   */\n    tag_65:\n        /* \"#utility.yul\":1497:1498   */\n      0x00\n        /* \"#utility.yul\":1507:1620   */\n    tag_99:\n        /* \"#utility.yul\":1521:1527   */\n      dup4\n        /* \"#utility.yul\":1518:1519   */\n      dup2\n        /* \"#utility.yul\":1515:1528   */\n      lt\n        /* \"#utility.yul\":1507:1620   */\n      iszero\n      tag_101\n      jumpi\n        /* \"#utility.yul\":1606:1607   */\n      dup1\n        /* \"#utility.yul\":1601:1604   */\n      dup3\n        /* \"#utility.yul\":1597:1608   */\n      add\n        /* \"#utility.yul\":1591:1609   */\n      mload\n        /* \"#utility.yul\":1587:1588   */\n      dup2\n        /* \"#utility.yul\":1582:1585   */\n      dup5\n        /* \"#utility.yul\":1578:1589   */\n      add\n        /* \"#utility.yul\":1571:1610   */\n      mstore\n        /* \"#utility.yul\":1543:1545   */\n      0x20\n        /* \"#utility.yul\":1540:1541   */\n      dup2\n        /* \"#utility.yul\":1536:1546   */\n      add\n        /* \"#utility.yul\":1531:1546   */\n      swap1\n      pop\n        /* \"#utility.yul\":1507:1620   */\n      jump(tag_99)\n    tag_101:\n        /* \"#utility.yul\":1638:1644   */\n      dup4\n        /* \"#utility.yul\":1635:1636   */\n      dup2\n        /* \"#utility.yul\":1632:1645   */\n      gt\n        /* \"#utility.yul\":1629:1730   */\n      iszero\n      tag_102\n      jumpi\n        /* \"#utility.yul\":1718:1719   */\n      0x00\n        /* \"#utility.yul\":1709:1715   */\n      dup5\n        /* \"#utility.yul\":1704:1707   */\n      dup5\n        /* \"#utility.yul\":1700:1716   */\n      add\n        /* \"#utility.yul\":1693:1720   */\n      mstore\n        /* \"#utility.yul\":1629:1730   */\n    tag_102:\n        /* \"#utility.yul\":1478:1736   */\n      pop\n        /* \"#utility.yul\":1429:1736   */\n      pop\n      pop\n      pop\n      jump\t// out\n        /* \"#utility.yul\":1742:1844   */\n    tag_66:\n        /* \"#utility.yul\":1783:1789   */\n      0x00\n        /* \"#utility.yul\":1834:1836   */\n      0x1f\n        /* \"#utility.yul\":1830:1837   */\n      not\n        /* \"#utility.yul\":1825:1827   */\n      0x1f\n        /* \"#utility.yul\":1818:1823   */\n      dup4\n        /* \"#utility.yul\":1814:1828   */\n      add\n        /* \"#utility.yul\":1810:1838   */\n      and\n        /* \"#utility.yul\":1800:1838   */\n      swap1\n      pop\n        /* \"#utility.yul\":1742:1844   */\n      swap2\n      swap1\n      pop\n      jump\t// out\n        /* \"#utility.yul\":1850:2214   */\n    tag_67:\n        /* \"#utility.yul\":1938:1941   */\n      0x00\n        /* \"#utility.yul\":1966:2005   */\n      tag_105\n        /* \"#utility.yul\":1999:2004   */\n      dup3\n        /* \"#utility.yul\":1966:2005   */\n      tag_63\n      jump\t// in\n    tag_105:\n        /* \"#utility.yul\":2021:2092   */\n      tag_106\n        /* \"#utility.yul\":2085:2091   */\n      dup2\n        /* \"#utility.yul\":2080:2083   */\n      dup6\n        /* \"#utility.yul\":2021:2092   */\n      tag_64\n      jump\t// in\n    tag_106:\n        /* \"#utility.yul\":2014:2092   */\n      swap4\n      pop\n        /* \"#utility.yul\":2101:2153   */\n      tag_107\n        /* \"#utility.yul\":2146:2152   */\n      dup2\n        /* \"#utility.yul\":2141:2144   */\n      dup6\n        /* \"#utility.yul\":2134:2138   */\n      0x20\n        /* \"#utility.yul\":2127:2132   */\n      dup7\n        /* \"#utility.yul\":2123:2139   */\n      add\n        /* \"#utility.yul\":2101:2153   */\n      tag_65\n      jump\t// in\n    tag_107:\n        /* \"#utility.yul\":2178:2207   */\n      tag_108\n        /* \"#utility.yul\":2200:2206   */\n      dup2\n        /* \"#utility.yul\":2178:2207   */\n      tag_66\n      jump\t// in\n    tag_108:\n        /* \"#utility.yul\":2173:2176   */\n      dup5\n        /* \"#utility.yul\":2169:2208   */\n      add\n        /* \"#utility.yul\":2162:2208   */\n      swap2\n      pop\n        /* \"#utility.yul\":1942:2214   */\n      pop\n        /* \"#utility.yul\":1850:2214   */\n      swap3\n      swap2\n      pop\n      pop\n      jump\t// out\n        /* \"#utility.yul\":2220:2753   */\n    tag_13:\n        /* \"#utility.yul\":2389:2393   */\n      0x00\n        /* \"#utility.yul\":2427:2429   */\n      0x60\n        /* \"#utility.yul\":2416:2425   */\n      dup3\n        /* \"#utility.yul\":2412:2430   */\n      add\n        /* \"#utility.yul\":2404:2430   */\n      swap1\n      pop\n        /* \"#utility.yul\":2440:2511   */\n      tag_110\n        /* \"#utility.yul\":2508:2509   */\n      0x00\n        /* \"#utility.yul\":2497:2506   */\n      dup4\n        /* \"#utility.yul\":2493:2510   */\n      add\n        /* \"#utility.yul\":2484:2490   */\n      dup7\n        /* \"#utility.yul\":2440:2511   */\n      tag_62\n      jump\t// in\n    tag_110:\n        /* \"#utility.yul\":2558:2567   */\n      dup2\n        /* \"#utility.yul\":2552:2556   */\n      dup2\n        /* \"#utility.yul\":2548:2568   */\n      sub\n        /* \"#utility.yul\":2543:2545   */\n      0x20\n        /* \"#utility.yul\":2532:2541   */\n      dup4\n        /* \"#utility.yul\":2528:2546   */\n      add\n        /* \"#utility.yul\":2521:2569   */\n      mstore\n        /* \"#utility.yul\":2586:2664   */\n      tag_111\n        /* \"#utility.yul\":2659:2663   */\n      dup2\n        /* \"#utility.yul\":2650:2656   */\n      dup6\n        /* \"#utility.yul\":2586:2664   */\n      tag_67\n      jump\t// in\n    tag_111:\n        /* \"#utility.yul\":2578:2664   */\n      swap1\n      pop\n        /* \"#utility.yul\":2674:2746   */\n      tag_112\n        /* \"#utility.yul\":2742:2744   */\n      0x40\n        /* \"#utility.yul\":2731:2740   */\n      dup4\n        /* \"#utility.yul\":2727:2745   */\n      add\n        /* \"#utility.yul\":2718:2724   */\n      dup5\n        /* \"#utility.yul\":2674:2746   */\n      tag_62\n      jump\t// in\n    tag_112:\n        /* \"#utility.yul\":2220:2753   */\n      swap5\n      swap4\n      pop\n      pop\n      pop\n      pop\n      jump\t// out\n        /* \"#utility.yul\":2759:2981   */\n    tag_17:\n        /* \"#utility.yul\":2852:2856   */\n      0x00\n        /* \"#utility.yul\":2890:2892   */\n      0x20\n        /* \"#utility.yul\":2879:2888   */\n      dup3\n        /* \"#utility.yul\":2875:2893   */\n      add\n        /* \"#utility.yul\":2867:2893   */\n      swap1\n      pop\n        /* \"#utility.yul\":2903:2974   */\n      tag_114\n        /* \"#utility.yul\":2971:2972   */\n      0x00\n        /* \"#utility.yul\":2960:2969   */\n      dup4\n        /* \"#utility.yul\":2956:2973   */\n      add\n        /* \"#utility.yul\":2947:2953   */\n      dup5\n        /* \"#utility.yul\":2903:2974   */\n      tag_62\n      jump\t// in\n    tag_114:\n        /* \"#utility.yul\":2759:2981   */\n      swap3\n      swap2\n      pop\n      pop\n      jump\t// out\n        /* \"#utility.yul\":2987:3104   */\n    tag_68:\n        /* \"#utility.yul\":3096:3097   */\n      0x00\n        /* \"#utility.yul\":3093:3094   */\n      dup1\n        /* \"#utility.yul\":3086:3098   */\n      revert\n        /* \"#utility.yul\":3110:3227   */\n    tag_69:\n        /* \"#utility.yul\":3219:3220   */\n      0x00\n        /* \"#utility.yul\":3216:3217   */\n      dup1\n        /* \"#utility.yul\":3209:3221   */\n      revert\n        /* \"#utility.yul\":3233:3413   */\n    tag_70:\n        /* \"#utility.yul\":3281:3358   */\n      0x4e487b7100000000000000000000000000000000000000000000000000000000\n        /* \"#utility.yul\":3278:3279   */\n      0x00\n        /* \"#utility.yul\":3271:3359   */\n      mstore\n        /* \"#utility.yul\":3378:3382   */\n      0x41\n        /* \"#utility.yul\":3375:3376   */\n      0x04\n        /* \"#utility.yul\":3368:3383   */\n      mstore\n        /* \"#utility.yul\":3402:3406   */\n      0x24\n        /* \"#utility.yul\":3399:3400   */\n      0x00\n        /* \"#utility.yul\":3392:3407   */\n      revert\n        /* \"#utility.yul\":3419:3700   */\n    tag_71:\n        /* \"#utility.yul\":3502:3529   */\n      tag_119\n        /* \"#utility.yul\":3524:3528   */\n      dup3\n        /* \"#utility.yul\":3502:3529   */\n      tag_66\n      jump\t// in\n    tag_119:\n        /* \"#utility.yul\":3494:3500   */\n      dup2\n        /* \"#utility.yul\":3490:3530   */\n      add\n        /* \"#utility.yul\":3632:3638   */\n      dup2\n        /* \"#utility.yul\":3620:3630   */\n      dup2\n        /* \"#utility.yul\":3617:3639   */\n      lt\n        /* \"#utility.yul\":3596:3614   */\n      0xffffffffffffffff\n        /* \"#utility.yul\":3584:3594   */\n      dup3\n        /* \"#utility.yul\":3581:3615   */\n      gt\n        /* \"#utility.yul\":3578:3640   */\n      or\n        /* \"#utility.yul\":3575:3663   */\n      iszero\n      tag_120\n      jumpi\n        /* \"#utility.yul\":3643:3661   */\n      tag_121\n      tag_70\n      jump\t// in\n    tag_121:\n        /* \"#utility.yul\":3575:3663   */\n    tag_120:\n        /* \"#utility.yul\":3683:3693   */\n      dup1\n        /* \"#utility.yul\":3679:3681   */\n      0x40\n        /* \"#utility.yul\":3672:3694   */\n      mstore\n        /* \"#utility.yul\":3462:3700   */\n      pop\n        /* \"#utility.yul\":3419:3700   */\n      pop\n      pop\n      jump\t// out\n        /* \"#utility.yul\":3706:3835   */\n    tag_72:\n        /* \"#utility.yul\":3740:3746   */\n      0x00\n        /* \"#utility.yul\":3767:3787   */\n      tag_123\n      tag_56\n      jump\t// in\n    tag_123:\n        /* \"#utility.yul\":3757:3787   */\n      swap1\n      pop\n        /* \"#utility.yul\":3796:3829   */\n      tag_124\n        /* \"#utility.yul\":3824:3828   */\n      dup3\n        /* \"#utility.yul\":3816:3822   */\n      dup3\n        /* \"#utility.yul\":3796:3829   */\n      tag_71\n      jump\t// in\n    tag_124:\n        /* \"#utility.yul\":3706:3835   */\n      swap2\n      swap1\n      pop\n      jump\t// out\n        /* \"#utility.yul\":3841:4149   */\n    tag_73:\n        /* \"#utility.yul\":3903:3907   */\n      0x00\n        /* \"#utility.yul\":3993:4011   */\n      0xffffffffffffffff\n        /* \"#utility.yul\":3985:3991   */\n      dup3\n        /* \"#utility.yul\":3982:4012   */\n      gt\n        /* \"#utility.yul\":3979:4035   */\n      iszero\n      tag_126\n      jumpi\n        /* \"#utility.yul\":4015:4033   */\n      tag_127\n      tag_70\n      jump\t// in\n    tag_127:\n        /* \"#utility.yul\":3979:4035   */\n    tag_126:\n        /* \"#utility.yul\":4053:4082   */\n      tag_128\n        /* \"#utility.yul\":4075:4081   */\n      dup3\n        /* \"#utility.yul\":4053:4082   */\n      tag_66\n      jump\t// in\n    tag_128:\n        /* \"#utility.yul\":4045:4082   */\n      swap1\n      pop\n        /* \"#utility.yul\":4137:4141   */\n      0x20\n        /* \"#utility.yul\":4131:4135   */\n      dup2\n        /* \"#utility.yul\":4127:4142   */\n      add\n        /* \"#utility.yul\":4119:4142   */\n      swap1\n      pop\n        /* \"#utility.yul\":3841:4149   */\n      swap2\n      swap1\n      pop\n      jump\t// out\n        /* \"#utility.yul\":4155:4309   */\n    tag_74:\n        /* \"#utility.yul\":4239:4245   */\n      dup3\n        /* \"#utility.yul\":4234:4237   */\n      dup2\n        /* \"#utility.yul\":4229:4232   */\n      dup4\n        /* \"#utility.yul\":4216:4246   */\n      calldatacopy\n        /* \"#utility.yul\":4301:4302   */\n      0x00\n        /* \"#utility.yul\":4292:4298   */\n      dup4\n        /* \"#utility.yul\":4287:4290   */\n      dup4\n        /* \"#utility.yul\":4283:4299   */\n      add\n        /* \"#utility.yul\":4276:4303   */\n      mstore\n        /* \"#utility.yul\":4155:4309   */\n      pop\n      pop\n      pop\n      jump\t// out\n        /* \"#utility.yul\":4315:4727   */\n    tag_75:\n        /* \"#utility.yul\":4393:4398   */\n      0x00\n        /* \"#utility.yul\":4418:4484   */\n      tag_131\n        /* \"#utility.yul\":4434:4483   */\n      tag_132\n        /* \"#utility.yul\":4476:4482   */\n      dup5\n        /* \"#utility.yul\":4434:4483   */\n      tag_73\n      jump\t// in\n    tag_132:\n        /* \"#utility.yul\":4418:4484   */\n      tag_72\n      jump\t// in\n    tag_131:\n        /* \"#utility.yul\":4409:4484   */\n      swap1\n      pop\n        /* \"#utility.yul\":4507:4513   */\n      dup3\n        /* \"#utility.yul\":4500:4505   */\n      dup2\n        /* \"#utility.yul\":4493:4514   */\n      mstore\n        /* \"#utility.yul\":4545:4549   */\n      0x20\n        /* \"#utility.yul\":4538:4543   */\n      dup2\n        /* \"#utility.yul\":4534:4550   */\n      add\n        /* \"#utility.yul\":4583:4586   */\n      dup5\n        /* \"#utility.yul\":4574:4580   */\n      dup5\n        /* \"#utility.yul\":4569:4572   */\n      dup5\n        /* \"#utility.yul\":4565:4581   */\n      add\n        /* \"#utility.yul\":4562:4587   */\n      gt\n        /* \"#utility.yul\":4559:4671   */\n      iszero\n      tag_133\n      jumpi\n        /* \"#utility.yul\":4590:4669   */\n      tag_134\n      tag_69\n      jump\t// in\n    tag_134:\n        /* \"#utility.yul\":4559:4671   */\n    tag_133:\n        /* \"#utility.yul\":4680:4721   */\n      tag_135\n        /* \"#utility.yul\":4714:4720   */\n      dup5\n        /* \"#utility.yul\":4709:4712   */\n      dup3\n        /* \"#utility.yul\":4704:4707   */\n      dup6\n        /* \"#utility.yul\":4680:4721   */\n      tag_74\n      jump\t// in\n    tag_135:\n        /* \"#utility.yul\":4399:4727   */\n      pop\n        /* \"#utility.yul\":4315:4727   */\n      swap4\n      swap3\n      pop\n      pop\n      pop\n      jump\t// out\n        /* \"#utility.yul\":4747:5087   */\n    tag_76:\n        /* \"#utility.yul\":4803:4808   */\n      0x00\n        /* \"#utility.yul\":4852:4855   */\n      dup3\n        /* \"#utility.yul\":4845:4849   */\n      0x1f\n        /* \"#utility.yul\":4837:4843   */\n      dup4\n        /* \"#utility.yul\":4833:4850   */\n      add\n        /* \"#utility.yul\":4829:4856   */\n      slt\n        /* \"#utility.yul\":4819:4941   */\n      tag_137\n      jumpi\n        /* \"#utility.yul\":4860:4939   */\n      tag_138\n      tag_68\n      jump\t// in\n    tag_138:\n        /* \"#utility.yul\":4819:4941   */\n    tag_137:\n        /* \"#utility.yul\":4977:4983   */\n      dup2\n        /* \"#utility.yul\":4964:4984   */\n      calldataload\n        /* \"#utility.yul\":5002:5081   */\n      tag_139\n        /* \"#utility.yul\":5077:5080   */\n      dup5\n        /* \"#utility.yul\":5069:5075   */\n      dup3\n        /* \"#utility.yul\":5062:5066   */\n      0x20\n        /* \"#utility.yul\":5054:5060   */\n      dup7\n        /* \"#utility.yul\":5050:5067   */\n      add\n        /* \"#utility.yul\":5002:5081   */\n      tag_75\n      jump\t// in\n    tag_139:\n        /* \"#utility.yul\":4993:5081   */\n      swap2\n      pop\n        /* \"#utility.yul\":4809:5087   */\n      pop\n        /* \"#utility.yul\":4747:5087   */\n      swap3\n      swap2\n      pop\n      pop\n      jump\t// out\n        /* \"#utility.yul\":5093:5892   */\n    tag_23:\n        /* \"#utility.yul\":5180:5186   */\n      0x00\n        /* \"#utility.yul\":5188:5194   */\n      dup1\n        /* \"#utility.yul\":5196:5202   */\n      0x00\n        /* \"#utility.yul\":5245:5247   */\n      0x60\n        /* \"#utility.yul\":5233:5242   */\n      dup5\n        /* \"#utility.yul\":5224:5231   */\n      dup7\n        /* \"#utility.yul\":5220:5243   */\n      sub\n        /* \"#utility.yul\":5216:5248   */\n      slt\n        /* \"#utility.yul\":5213:5332   */\n      iszero\n      tag_141\n      jumpi\n        /* \"#utility.yul\":5251:5330   */\n      tag_142\n      tag_57\n      jump\t// in\n    tag_142:\n        /* \"#utility.yul\":5213:5332   */\n    tag_141:\n        /* \"#utility.yul\":5399:5400   */\n      0x00\n        /* \"#utility.yul\":5388:5397   */\n      dup5\n        /* \"#utility.yul\":5384:5401   */\n      add\n        /* \"#utility.yul\":5371:5402   */\n      calldataload\n        /* \"#utility.yul\":5429:5447   */\n      0xffffffffffffffff\n        /* \"#utility.yul\":5421:5427   */\n      dup2\n        /* \"#utility.yul\":5418:5448   */\n      gt\n        /* \"#utility.yul\":5415:5532   */\n      iszero\n      tag_143\n      jumpi\n        /* \"#utility.yul\":5451:5530   */\n      tag_144\n      tag_58\n      jump\t// in\n    tag_144:\n        /* \"#utility.yul\":5415:5532   */\n    tag_143:\n        /* \"#utility.yul\":5556:5619   */\n      tag_145\n        /* \"#utility.yul\":5611:5618   */\n      dup7\n        /* \"#utility.yul\":5602:5608   */\n      dup3\n        /* \"#utility.yul\":5591:5600   */\n      dup8\n        /* \"#utility.yul\":5587:5609   */\n      add\n        /* \"#utility.yul\":5556:5619   */\n      tag_76\n      jump\t// in\n    tag_145:\n        /* \"#utility.yul\":5546:5619   */\n      swap4\n      pop\n        /* \"#utility.yul\":5342:5629   */\n      pop\n        /* \"#utility.yul\":5668:5670   */\n      0x20\n        /* \"#utility.yul\":5694:5747   */\n      tag_146\n        /* \"#utility.yul\":5739:5746   */\n      dup7\n        /* \"#utility.yul\":5730:5736   */\n      dup3\n        /* \"#utility.yul\":5719:5728   */\n      dup8\n        /* \"#utility.yul\":5715:5737   */\n      add\n        /* \"#utility.yul\":5694:5747   */\n      tag_61\n      jump\t// in\n    tag_146:\n        /* \"#utility.yul\":5684:5747   */\n      swap3\n      pop\n        /* \"#utility.yul\":5639:5757   */\n      pop\n        /* \"#utility.yul\":5796:5798   */\n      0x40\n        /* \"#utility.yul\":5822:5875   */\n      tag_147\n        /* \"#utility.yul\":5867:5874   */\n      dup7\n        /* \"#utility.yul\":5858:5864   */\n      dup3\n        /* \"#utility.yul\":5847:5856   */\n      dup8\n        /* \"#utility.yul\":5843:5865   */\n      add\n        /* \"#utility.yul\":5822:5875   */\n      tag_61\n      jump\t// in\n    tag_147:\n        /* \"#utility.yul\":5812:5875   */\n      swap2\n      pop\n        /* \"#utility.yul\":5767:5885   */\n      pop\n        /* \"#utility.yul\":5093:5892   */\n      swap3\n      pop\n      swap3\n      pop\n      swap3\n      jump\t// out\n        /* \"#utility.yul\":5898:6407   */\n    tag_27:\n        /* \"#utility.yul\":5967:5973   */\n      0x00\n        /* \"#utility.yul\":6016:6018   */\n      0x20\n        /* \"#utility.yul\":6004:6013   */\n      dup3\n        /* \"#utility.yul\":5995:6002   */\n      dup5\n        /* \"#utility.yul\":5991:6014   */\n      sub\n        /* \"#utility.yul\":5987:6019   */\n      slt\n        /* \"#utility.yul\":5984:6103   */\n      iszero\n      tag_149\n      jumpi\n        /* \"#utility.yul\":6022:6101   */\n      tag_150\n      tag_57\n      jump\t// in\n    tag_150:\n        /* \"#utility.yul\":5984:6103   */\n    tag_149:\n        /* \"#utility.yul\":6170:6171   */\n      0x00\n        /* \"#utility.yul\":6159:6168   */\n      dup3\n        /* \"#utility.yul\":6155:6172   */\n      add\n        /* \"#utility.yul\":6142:6173   */\n      calldataload\n        /* \"#utility.yul\":6200:6218   */\n      0xffffffffffffffff\n        /* \"#utility.yul\":6192:6198   */\n      dup2\n        /* \"#utility.yul\":6189:6219   */\n      gt\n        /* \"#utility.yul\":6186:6303   */\n      iszero\n      tag_151\n      jumpi\n        /* \"#utility.yul\":6222:6301   */\n      tag_152\n      tag_58\n      jump\t// in\n    tag_152:\n        /* \"#utility.yul\":6186:6303   */\n    tag_151:\n        /* \"#utility.yul\":6327:6390   */\n      tag_153\n        /* \"#utility.yul\":6382:6389   */\n      dup5\n        /* \"#utility.yul\":6373:6379   */\n      dup3\n        /* \"#utility.yul\":6362:6371   */\n      dup6\n        /* \"#utility.yul\":6358:6380   */\n      add\n        /* \"#utility.yul\":6327:6390   */\n      tag_76\n      jump\t// in\n    tag_153:\n        /* \"#utility.yul\":6317:6390   */\n      swap2\n      pop\n        /* \"#utility.yul\":6113:6400   */\n      pop\n        /* \"#utility.yul\":5898:6407   */\n      swap3\n      swap2\n      pop\n      pop\n      jump\t// out\n        /* \"#utility.yul\":6413:6593   */\n    tag_77:\n        /* \"#utility.yul\":6461:6538   */\n      0x4e487b7100000000000000000000000000000000000000000000000000000000\n        /* \"#utility.yul\":6458:6459   */\n      0x00\n        /* \"#utility.yul\":6451:6539   */\n      mstore\n        /* \"#utility.yul\":6558:6562   */\n      0x22\n        /* \"#utility.yul\":6555:6556   */\n      0x04\n        /* \"#utility.yul\":6548:6563   */\n      mstore\n        /* \"#utility.yul\":6582:6586   */\n      0x24\n        /* \"#utility.yul\":6579:6580   */\n      0x00\n        /* \"#utility.yul\":6572:6587   */\n      revert\n        /* \"#utility.yul\":6599:6919   */\n    tag_33:\n        /* \"#utility.yul\":6643:6649   */\n      0x00\n        /* \"#utility.yul\":6680:6681   */\n      0x02\n        /* \"#utility.yul\":6674:6678   */\n      dup3\n        /* \"#utility.yul\":6670:6682   */\n      div\n        /* \"#utility.yul\":6660:6682   */\n      swap1\n      pop\n        /* \"#utility.yul\":6727:6728   */\n      0x01\n        /* \"#utility.yul\":6721:6725   */\n      dup3\n        /* \"#utility.yul\":6717:6729   */\n      and\n        /* \"#utility.yul\":6748:6766   */\n      dup1\n        /* \"#utility.yul\":6738:6819   */\n      tag_156\n      jumpi\n        /* \"#utility.yul\":6804:6808   */\n      0x7f\n        /* \"#utility.yul\":6796:6802   */\n      dup3\n        /* \"#utility.yul\":6792:6809   */\n      and\n        /* \"#utility.yul\":6782:6809   */\n      swap2\n      pop\n        /* \"#utility.yul\":6738:6819   */\n    tag_156:\n        /* \"#utility.yul\":6866:6868   */\n      0x20\n        /* \"#utility.yul\":6858:6864   */\n      dup3\n        /* \"#utility.yul\":6855:6869   */\n      lt\n        /* \"#utility.yul\":6835:6853   */\n      dup2\n        /* \"#utility.yul\":6832:6870   */\n      eq\n        /* \"#utility.yul\":6829:6913   */\n      iszero\n      tag_157\n      jumpi\n        /* \"#utility.yul\":6885:6903   */\n      tag_158\n      tag_77\n      jump\t// in\n    tag_158:\n        /* \"#utility.yul\":6829:6913   */\n    tag_157:\n        /* \"#utility.yul\":6650:6919   */\n      pop\n        /* \"#utility.yul\":6599:6919   */\n      swap2\n      swap1\n      pop\n      jump\t// out\n        /* \"#utility.yul\":6925:7073   */\n    tag_78:\n        /* \"#utility.yul\":7027:7038   */\n      0x00\n        /* \"#utility.yul\":7064:7067   */\n      dup2\n        /* \"#utility.yul\":7049:7067   */\n      swap1\n      pop\n        /* \"#utility.yul\":6925:7073   */\n      swap3\n      swap2\n      pop\n      pop\n      jump\t// out\n        /* \"#utility.yul\":7079:7456   */\n    tag_79:\n        /* \"#utility.yul\":7185:7188   */\n      0x00\n        /* \"#utility.yul\":7213:7252   */\n      tag_161\n        /* \"#utility.yul\":7246:7251   */\n      dup3\n        /* \"#utility.yul\":7213:7252   */\n      tag_63\n      jump\t// in\n    tag_161:\n        /* \"#utility.yul\":7268:7357   */\n      tag_162\n        /* \"#utility.yul\":7350:7356   */\n      dup2\n        /* \"#utility.yul\":7345:7348   */\n      dup6\n        /* \"#utility.yul\":7268:7357   */\n      tag_78\n      jump\t// in\n    tag_162:\n        /* \"#utility.yul\":7261:7357   */\n      swap4\n      pop\n        /* \"#utility.yul\":7366:7418   */\n      tag_163\n        /* \"#utility.yul\":7411:7417   */\n      dup2\n        /* \"#utility.yul\":7406:7409   */\n      dup6\n        /* \"#utility.yul\":7399:7403   */\n      0x20\n        /* \"#utility.yul\":7392:7397   */\n      dup7\n        /* \"#utility.yul\":7388:7404   */\n      add\n        /* \"#utility.yul\":7366:7418   */\n      tag_65\n      jump\t// in\n    tag_163:\n        /* \"#utility.yul\":7443:7449   */\n      dup1\n        /* \"#utility.yul\":7438:7441   */\n      dup5\n        /* \"#utility.yul\":7434:7450   */\n      add\n        /* \"#utility.yul\":7427:7450   */\n      swap2\n      pop\n        /* \"#utility.yul\":7189:7456   */\n      pop\n        /* \"#utility.yul\":7079:7456   */\n      swap3\n      swap2\n      pop\n      pop\n      jump\t// out\n        /* \"#utility.yul\":7462:7737   */\n    tag_45:\n        /* \"#utility.yul\":7594:7597   */\n      0x00\n        /* \"#utility.yul\":7616:7711   */\n      tag_165\n        /* \"#utility.yul\":7707:7710   */\n      dup3\n        /* \"#utility.yul\":7698:7704   */\n      dup5\n        /* \"#utility.yul\":7616:7711   */\n      tag_79\n      jump\t// in\n    tag_165:\n        /* \"#utility.yul\":7609:7711   */\n      swap2\n      pop\n        /* \"#utility.yul\":7728:7731   */\n      dup2\n        /* \"#utility.yul\":7721:7731   */\n      swap1\n      pop\n        /* \"#utility.yul\":7462:7737   */\n      swap3\n      swap2\n      pop\n      pop\n      jump\t// out\n\n    auxdata: 0xa2646970667358221220f0b0dcece8ba8ad38ba742140ef724334591a2068297d2690facb6223ea7bd6864736f6c63430008080033\n}\n",
				"bytecode": {
					"linkReferences": {},
					"object": "608060405234801561001057600080fd5b506107b0806100206000396000f3fe608060405234801561001057600080fd5b50600436106100575760003560e01c8063092a18201461005c5780632e64cec11461008e5780636057361d146100ac578063abbc0a8a146100c8578063f6d8f2cb146100e4575b600080fd5b610076600480360381019061007191906103ab565b610114565b60405161008593929190610480565b60405180910390f35b6100966101d6565b6040516100a391906104be565b60405180910390f35b6100c660048036038101906100c191906103ab565b6101df565b005b6100e260048036038101906100dd919061060e565b6101e9565b005b6100fe60048036038101906100f9919061067d565b610290565b60405161010b91906104be565b60405180910390f35b6001818154811061012457600080fd5b906000526020600020906003020160009150905080600001549080600101805461014d906106f5565b80601f0160208091040260200160405190810160405280929190818152602001828054610179906106f5565b80156101c65780601f1061019b576101008083540402835291602001916101c6565b820191906000526020600020905b8154815290600101906020018083116101a957829003601f168201915b5050505050908060020154905083565b60008054905090565b8060008190555050565b60006040518060600160405280848152602001858152602001838152509050600181908060018154018082558091505060019003906000526020600020906003020160009091909190915060008201518160000155602082015181600101908051906020019061025a9291906102be565b50604082015181600201555050826002856040516102789190610763565b90815260200160405180910390208190555050505050565b6002818051602081018201805184825260208301602085012081835280955050505050506000915090505481565b8280546102ca906106f5565b90600052602060002090601f0160209004810192826102ec5760008555610333565b82601f1061030557805160ff1916838001178555610333565b82800160010185558215610333579182015b82811115610332578251825591602001919060010190610317565b5b5090506103409190610344565b5090565b5b8082111561035d576000816000905550600101610345565b5090565b6000604051905090565b600080fd5b600080fd5b6000819050919050565b61038881610375565b811461039357600080fd5b50565b6000813590506103a58161037f565b92915050565b6000602082840312156103c1576103c061036b565b5b60006103cf84828501610396565b91505092915050565b6103e181610375565b82525050565b600081519050919050565b600082825260208201905092915050565b60005b83811015610421578082015181840152602081019050610406565b83811115610430576000848401525b50505050565b6000601f19601f8301169050919050565b6000610452826103e7565b61045c81856103f2565b935061046c818560208601610403565b61047581610436565b840191505092915050565b600060608201905061049560008301866103d8565b81810360208301526104a78185610447565b90506104b660408301846103d8565b949350505050565b60006020820190506104d360008301846103d8565b92915050565b600080fd5b600080fd5b7f4e487b7100000000000000000000000000000000000000000000000000000000600052604160045260246000fd5b61051b82610436565b810181811067ffffffffffffffff8211171561053a576105396104e3565b5b80604052505050565b600061054d610361565b90506105598282610512565b919050565b600067ffffffffffffffff821115610579576105786104e3565b5b61058282610436565b9050602081019050919050565b82818337600083830152505050565b60006105b16105ac8461055e565b610543565b9050828152602081018484840111156105cd576105cc6104de565b5b6105d884828561058f565b509392505050565b600082601f8301126105f5576105f46104d9565b5b813561060584826020860161059e565b91505092915050565b6000806000606084860312156106275761062661036b565b5b600084013567ffffffffffffffff81111561064557610644610370565b5b610651868287016105e0565b935050602061066286828701610396565b925050604061067386828701610396565b9150509250925092565b6000602082840312156106935761069261036b565b5b600082013567ffffffffffffffff8111156106b1576106b0610370565b5b6106bd848285016105e0565b91505092915050565b7f4e487b7100000000000000000000000000000000000000000000000000000000600052602260045260246000fd5b6000600282049050600182168061070d57607f821691505b60208210811415610721576107206106c6565b5b50919050565b600081905092915050565b600061073d826103e7565b6107478185610727565b9350610757818560208601610403565b80840191505092915050565b600061076f8284610732565b91508190509291505056fea2646970667358221220f0b0dcece8ba8ad38ba742140ef724334591a2068297d2690facb6223ea7bd6864736f6c63430008080033",
					"opcodes": "PUSH1 0x80 PUSH1 0x40 MSTORE CALLVALUE DUP1 ISZERO PUSH2 0x10 JUMPI PUSH1 0x0 DUP1 REVERT JUMPDEST POP PUSH2 0x7B0 DUP1 PUSH2 0x20 PUSH1 0x0 CODECOPY PUSH1 0x0 RETURN INVALID PUSH1 0x80 PUSH1 0x40 MSTORE CALLVALUE DUP1 ISZERO PUSH2 0x10 JUMPI PUSH1 0x0 DUP1 REVERT JUMPDEST POP PUSH1 0x4 CALLDATASIZE LT PUSH2 0x57 JUMPI PUSH1 0x0 CALLDATALOAD PUSH1 0xE0 SHR DUP1 PUSH4 0x92A1820 EQ PUSH2 0x5C JUMPI DUP1 PUSH4 0x2E64CEC1 EQ PUSH2 0x8E JUMPI DUP1 PUSH4 0x6057361D EQ PUSH2 0xAC JUMPI DUP1 PUSH4 0xABBC0A8A EQ PUSH2 0xC8 JUMPI DUP1 PUSH4 0xF6D8F2CB EQ PUSH2 0xE4 JUMPI JUMPDEST PUSH1 0x0 DUP1 REVERT JUMPDEST PUSH2 0x76 PUSH1 0x4 DUP1 CALLDATASIZE SUB DUP2 ADD SWAP1 PUSH2 0x71 SWAP2 SWAP1 PUSH2 0x3AB JUMP JUMPDEST PUSH2 0x114 JUMP JUMPDEST PUSH1 0x40 MLOAD PUSH2 0x85 SWAP4 SWAP3 SWAP2 SWAP1 PUSH2 0x480 JUMP JUMPDEST PUSH1 0x40 MLOAD DUP1 SWAP2 SUB SWAP1 RETURN JUMPDEST PUSH2 0x96 PUSH2 0x1D6 JUMP JUMPDEST PUSH1 0x40 MLOAD PUSH2 0xA3 SWAP2 SWAP1 PUSH2 0x4BE JUMP JUMPDEST PUSH1 0x40 MLOAD DUP1 SWAP2 SUB SWAP1 RETURN JUMPDEST PUSH2 0xC6 PUSH1 0x4 DUP1 CALLDATASIZE SUB DUP2 ADD SWAP1 PUSH2 0xC1 SWAP2 SWAP1 PUSH2 0x3AB JUMP JUMPDEST PUSH2 0x1DF JUMP JUMPDEST STOP JUMPDEST PUSH2 0xE2 PUSH1 0x4 DUP1 CALLDATASIZE SUB DUP2 ADD SWAP1 PUSH2 0xDD SWAP2 SWAP1 PUSH2 0x60E JUMP JUMPDEST PUSH2 0x1E9 JUMP JUMPDEST STOP JUMPDEST PUSH2 0xFE PUSH1 0x4 DUP1 CALLDATASIZE SUB DUP2 ADD SWAP1 PUSH2 0xF9 SWAP2 SWAP1 PUSH2 0x67D JUMP JUMPDEST PUSH2 0x290 JUMP JUMPDEST PUSH1 0x40 MLOAD PUSH2 0x10B SWAP2 SWAP1 PUSH2 0x4BE JUMP JUMPDEST PUSH1 0x40 MLOAD DUP1 SWAP2 SUB SWAP1 RETURN JUMPDEST PUSH1 0x1 DUP2 DUP2 SLOAD DUP2 LT PUSH2 0x124 JUMPI PUSH1 0x0 DUP1 REVERT JUMPDEST SWAP1 PUSH1 0x0 MSTORE PUSH1 0x20 PUSH1 0x0 KECCAK256 SWAP1 PUSH1 0x3 MUL ADD PUSH1 0x0 SWAP2 POP SWAP1 POP DUP1 PUSH1 0x0 ADD SLOAD SWAP1 DUP1 PUSH1 0x1 ADD DUP1 SLOAD PUSH2 0x14D SWAP1 PUSH2 0x6F5 JUMP JUMPDEST DUP1 PUSH1 0x1F ADD PUSH1 0x20 DUP1 SWAP2 DIV MUL PUSH1 0x20 ADD PUSH1 0x40 MLOAD SWAP1 DUP2 ADD PUSH1 0x40 MSTORE DUP1 SWAP3 SWAP2 SWAP1 DUP2 DUP2 MSTORE PUSH1 0x20 ADD DUP3 DUP1 SLOAD PUSH2 0x179 SWAP1 PUSH2 0x6F5 JUMP JUMPDEST DUP1 ISZERO PUSH2 0x1C6 JUMPI DUP1 PUSH1 0x1F LT PUSH2 0x19B JUMPI PUSH2 0x100 DUP1 DUP4 SLOAD DIV MUL DUP4 MSTORE SWAP2 PUSH1 0x20 ADD SWAP2 PUSH2 0x1C6 JUMP JUMPDEST DUP3 ADD SWAP2 SWAP1 PUSH1 0x0 MSTORE PUSH1 0x20 PUSH1 0x0 KECCAK256 SWAP1 JUMPDEST DUP2 SLOAD DUP2 MSTORE SWAP1 PUSH1 0x1 ADD SWAP1 PUSH1 0x20 ADD DUP1 DUP4 GT PUSH2 0x1A9 JUMPI DUP3 SWAP1 SUB PUSH1 0x1F AND DUP3 ADD SWAP2 JUMPDEST POP POP POP POP POP SWAP1 DUP1 PUSH1 0x2 ADD SLOAD SWAP1 POP DUP4 JUMP JUMPDEST PUSH1 0x0 DUP1 SLOAD SWAP1 POP SWAP1 JUMP JUMPDEST DUP1 PUSH1 0x0 DUP2 SWAP1 SSTORE POP POP JUMP JUMPDEST PUSH1 0x0 PUSH1 0x40 MLOAD DUP1 PUSH1 0x60 ADD PUSH1 0x40 MSTORE DUP1 DUP5 DUP2 MSTORE PUSH1 0x20 ADD DUP6 DUP2 MSTORE PUSH1 0x20 ADD DUP4 DUP2 MSTORE POP SWAP1 POP PUSH1 0x1 DUP2 SWAP1 DUP1 PUSH1 0x1 DUP2 SLOAD ADD DUP1 DUP3 SSTORE DUP1 SWAP2 POP POP PUSH1 0x1 SWAP1 SUB SWAP1 PUSH1 0x0 MSTORE PUSH1 0x20 PUSH1 0x0 KECCAK256 SWAP1 PUSH1 0x3 MUL ADD PUSH1 0x0 SWAP1 SWAP2 SWAP1 SWAP2 SWAP1 SWAP2 POP PUSH1 0x0 DUP3 ADD MLOAD DUP2 PUSH1 0x0 ADD SSTORE PUSH1 0x20 DUP3 ADD MLOAD DUP2 PUSH1 0x1 ADD SWAP1 DUP1 MLOAD SWAP1 PUSH1 0x20 ADD SWAP1 PUSH2 0x25A SWAP3 SWAP2 SWAP1 PUSH2 0x2BE JUMP JUMPDEST POP PUSH1 0x40 DUP3 ADD MLOAD DUP2 PUSH1 0x2 ADD SSTORE POP POP DUP3 PUSH1 0x2 DUP6 PUSH1 0x40 MLOAD PUSH2 0x278 SWAP2 SWAP1 PUSH2 0x763 JUMP JUMPDEST SWAP1 DUP2 MSTORE PUSH1 0x20 ADD PUSH1 0x40 MLOAD DUP1 SWAP2 SUB SWAP1 KECCAK256 DUP2 SWAP1 SSTORE POP POP POP POP POP JUMP JUMPDEST PUSH1 0x2 DUP2 DUP1 MLOAD PUSH1 0x20 DUP2 ADD DUP3 ADD DUP1 MLOAD DUP5 DUP3 MSTORE PUSH1 0x20 DUP4 ADD PUSH1 0x20 DUP6 ADD KECCAK256 DUP2 DUP4 MSTORE DUP1 SWAP6 POP POP POP POP POP POP PUSH1 0x0 SWAP2 POP SWAP1 POP SLOAD DUP2 JUMP JUMPDEST DUP3 DUP1 SLOAD PUSH2 0x2CA SWAP1 PUSH2 0x6F5 JUMP JUMPDEST SWAP1 PUSH1 0x0 MSTORE PUSH1 0x20 PUSH1 0x0 KECCAK256 SWAP1 PUSH1 0x1F ADD PUSH1 0x20 SWAP1 DIV DUP2 ADD SWAP3 DUP3 PUSH2 0x2EC JUMPI PUSH1 0x0 DUP6 SSTORE PUSH2 0x333 JUMP JUMPDEST DUP3 PUSH1 0x1F LT PUSH2 0x305 JUMPI DUP1 MLOAD PUSH1 0xFF NOT AND DUP4 DUP1 ADD OR DUP6 SSTORE PUSH2 0x333 JUMP JUMPDEST DUP3 DUP1 ADD PUSH1 0x1 ADD DUP6 SSTORE DUP3 ISZERO PUSH2 0x333 JUMPI SWAP2 DUP3 ADD JUMPDEST DUP3 DUP2 GT ISZERO PUSH2 0x332 JUMPI DUP3 MLOAD DUP3 SSTORE SWAP2 PUSH1 0x20 ADD SWAP2 SWAP1 PUSH1 0x1 ADD SWAP1 PUSH2 0x317 JUMP JUMPDEST JUMPDEST POP SWAP1 POP PUSH2 0x340 SWAP2 SWAP1 PUSH2 0x344 JUMP JUMPDEST POP SWAP1 JUMP JUMPDEST JUMPDEST DUP1 DUP3 GT ISZERO PUSH2 0x35D JUMPI PUSH1 0x0 DUP2 PUSH1 0x0 SWAP1 SSTORE POP PUSH1 0x1 ADD PUSH2 0x345 JUMP JUMPDEST POP SWAP1 JUMP JUMPDEST PUSH1 0x0 PUSH1 0x40 MLOAD SWAP1 POP SWAP1 JUMP JUMPDEST PUSH1 0x0 DUP1 REVERT JUMPDEST PUSH1 0x0 DUP1 REVERT JUMPDEST PUSH1 0x0 DUP2 SWAP1 POP SWAP2 SWAP1 POP JUMP JUMPDEST PUSH2 0x388 DUP2 PUSH2 0x375 JUMP JUMPDEST DUP2 EQ PUSH2 0x393 JUMPI PUSH1 0x0 DUP1 REVERT JUMPDEST POP JUMP JUMPDEST PUSH1 0x0 DUP2 CALLDATALOAD SWAP1 POP PUSH2 0x3A5 DUP2 PUSH2 0x37F JUMP JUMPDEST SWAP3 SWAP2 POP POP JUMP JUMPDEST PUSH1 0x0 PUSH1 0x20 DUP3 DUP5 SUB SLT ISZERO PUSH2 0x3C1 JUMPI PUSH2 0x3C0 PUSH2 0x36B JUMP JUMPDEST JUMPDEST PUSH1 0x0 PUSH2 0x3CF DUP5 DUP3 DUP6 ADD PUSH2 0x396 JUMP JUMPDEST SWAP2 POP POP SWAP3 SWAP2 POP POP JUMP JUMPDEST PUSH2 0x3E1 DUP2 PUSH2 0x375 JUMP JUMPDEST DUP3 MSTORE POP POP JUMP JUMPDEST PUSH1 0x0 DUP2 MLOAD SWAP1 POP SWAP2 SWAP1 POP JUMP JUMPDEST PUSH1 0x0 DUP3 DUP3 MSTORE PUSH1 0x20 DUP3 ADD SWAP1 POP SWAP3 SWAP2 POP POP JUMP JUMPDEST PUSH1 0x0 JUMPDEST DUP4 DUP2 LT ISZERO PUSH2 0x421 JUMPI DUP1 DUP3 ADD MLOAD DUP2 DUP5 ADD MSTORE PUSH1 0x20 DUP2 ADD SWAP1 POP PUSH2 0x406 JUMP JUMPDEST DUP4 DUP2 GT ISZERO PUSH2 0x430 JUMPI PUSH1 0x0 DUP5 DUP5 ADD MSTORE JUMPDEST POP POP POP POP JUMP JUMPDEST PUSH1 0x0 PUSH1 0x1F NOT PUSH1 0x1F DUP4 ADD AND SWAP1 POP SWAP2 SWAP1 POP JUMP JUMPDEST PUSH1 0x0 PUSH2 0x452 DUP3 PUSH2 0x3E7 JUMP JUMPDEST PUSH2 0x45C DUP2 DUP6 PUSH2 0x3F2 JUMP JUMPDEST SWAP4 POP PUSH2 0x46C DUP2 DUP6 PUSH1 0x20 DUP7 ADD PUSH2 0x403 JUMP JUMPDEST PUSH2 0x475 DUP2 PUSH2 0x436 JUMP JUMPDEST DUP5 ADD SWAP2 POP POP SWAP3 SWAP2 POP POP JUMP JUMPDEST PUSH1 0x0 PUSH1 0x60 DUP3 ADD SWAP1 POP PUSH2 0x495 PUSH1 0x0 DUP4 ADD DUP7 PUSH2 0x3D8 JUMP JUMPDEST DUP2 DUP2 SUB PUSH1 0x20 DUP4 ADD MSTORE PUSH2 0x4A7 DUP2 DUP6 PUSH2 0x447 JUMP JUMPDEST SWAP1 POP PUSH2 0x4B6 PUSH1 0x40 DUP4 ADD DUP5 PUSH2 0x3D8 JUMP JUMPDEST SWAP5 SWAP4 POP POP POP POP JUMP JUMPDEST PUSH1 0x0 PUSH1 0x20 DUP3 ADD SWAP1 POP PUSH2 0x4D3 PUSH1 0x0 DUP4 ADD DUP5 PUSH2 0x3D8 JUMP JUMPDEST SWAP3 SWAP2 POP POP JUMP JUMPDEST PUSH1 0x0 DUP1 REVERT JUMPDEST PUSH1 0x0 DUP1 REVERT JUMPDEST PUSH32 0x4E487B7100000000000000000000000000000000000000000000000000000000 PUSH1 0x0 MSTORE PUSH1 0x41 PUSH1 0x4 MSTORE PUSH1 0x24 PUSH1 0x0 REVERT JUMPDEST PUSH2 0x51B DUP3 PUSH2 0x436 JUMP JUMPDEST DUP2 ADD DUP2 DUP2 LT PUSH8 0xFFFFFFFFFFFFFFFF DUP3 GT OR ISZERO PUSH2 0x53A JUMPI PUSH2 0x539 PUSH2 0x4E3 JUMP JUMPDEST JUMPDEST DUP1 PUSH1 0x40 MSTORE POP POP POP JUMP JUMPDEST PUSH1 0x0 PUSH2 0x54D PUSH2 0x361 JUMP JUMPDEST SWAP1 POP PUSH2 0x559 DUP3 DUP3 PUSH2 0x512 JUMP JUMPDEST SWAP2 SWAP1 POP JUMP JUMPDEST PUSH1 0x0 PUSH8 0xFFFFFFFFFFFFFFFF DUP3 GT ISZERO PUSH2 0x579 JUMPI PUSH2 0x578 PUSH2 0x4E3 JUMP JUMPDEST JUMPDEST PUSH2 0x582 DUP3 PUSH2 0x436 JUMP JUMPDEST SWAP1 POP PUSH1 0x20 DUP2 ADD SWAP1 POP SWAP2 SWAP1 POP JUMP JUMPDEST DUP3 DUP2 DUP4 CALLDATACOPY PUSH1 0x0 DUP4 DUP4 ADD MSTORE POP POP POP JUMP JUMPDEST PUSH1 0x0 PUSH2 0x5B1 PUSH2 0x5AC DUP5 PUSH2 0x55E JUMP JUMPDEST PUSH2 0x543 JUMP JUMPDEST SWAP1 POP DUP3 DUP2 MSTORE PUSH1 0x20 DUP2 ADD DUP5 DUP5 DUP5 ADD GT ISZERO PUSH2 0x5CD JUMPI PUSH2 0x5CC PUSH2 0x4DE JUMP JUMPDEST JUMPDEST PUSH2 0x5D8 DUP5 DUP3 DUP6 PUSH2 0x58F JUMP JUMPDEST POP SWAP4 SWAP3 POP POP POP JUMP JUMPDEST PUSH1 0x0 DUP3 PUSH1 0x1F DUP4 ADD SLT PUSH2 0x5F5 JUMPI PUSH2 0x5F4 PUSH2 0x4D9 JUMP JUMPDEST JUMPDEST DUP2 CALLDATALOAD PUSH2 0x605 DUP5 DUP3 PUSH1 0x20 DUP7 ADD PUSH2 0x59E JUMP JUMPDEST SWAP2 POP POP SWAP3 SWAP2 POP POP JUMP JUMPDEST PUSH1 0x0 DUP1 PUSH1 0x0 PUSH1 0x60 DUP5 DUP7 SUB SLT ISZERO PUSH2 0x627 JUMPI PUSH2 0x626 PUSH2 0x36B JUMP JUMPDEST JUMPDEST PUSH1 0x0 DUP5 ADD CALLDATALOAD PUSH8 0xFFFFFFFFFFFFFFFF DUP2 GT ISZERO PUSH2 0x645 JUMPI PUSH2 0x644 PUSH2 0x370 JUMP JUMPDEST JUMPDEST PUSH2 0x651 DUP7 DUP3 DUP8 ADD PUSH2 0x5E0 JUMP JUMPDEST SWAP4 POP POP PUSH1 0x20 PUSH2 0x662 DUP7 DUP3 DUP8 ADD PUSH2 0x396 JUMP JUMPDEST SWAP3 POP POP PUSH1 0x40 PUSH2 0x673 DUP7 DUP3 DUP8 ADD PUSH2 0x396 JUMP JUMPDEST SWAP2 POP POP SWAP3 POP SWAP3 POP SWAP3 JUMP JUMPDEST PUSH1 0x0 PUSH1 0x20 DUP3 DUP5 SUB SLT ISZERO PUSH2 0x693 JUMPI PUSH2 0x692 PUSH2 0x36B JUMP JUMPDEST JUMPDEST PUSH1 0x0 DUP3 ADD CALLDATALOAD PUSH8 0xFFFFFFFFFFFFFFFF DUP2 GT ISZERO PUSH2 0x6B1 JUMPI PUSH2 0x6B0 PUSH2 0x370 JUMP JUMPDEST JUMPDEST PUSH2 0x6BD DUP5 DUP3 DUP6 ADD PUSH2 0x5E0 JUMP JUMPDEST SWAP2 POP POP SWAP3 SWAP2 POP POP JUMP JUMPDEST PUSH32 0x4E487B7100000000000000000000000000000000000000000000000000000000 PUSH1 0x0 MSTORE PUSH1 0x22 PUSH1 0x4 MSTORE PUSH1 0x24 PUSH1 0x0 REVERT JUMPDEST PUSH1 0x0 PUSH1 0x2 DUP3 DIV SWAP1 POP PUSH1 0x1 DUP3 AND DUP1 PUSH2 0x70D JUMPI PUSH1 0x7F DUP3 AND SWAP2 POP JUMPDEST PUSH1 0x20 DUP3 LT DUP2 EQ ISZERO PUSH2 0x721 JUMPI PUSH2 0x720 PUSH2 0x6C6 JUMP JUMPDEST JUMPDEST POP SWAP2 SWAP1 POP JUMP JUMPDEST PUSH1 0x0 DUP2 SWAP1 POP SWAP3 SWAP2 POP POP JUMP JUMPDEST PUSH1 0x0 PUSH2 0x73D DUP3 PUSH2 0x3E7 JUMP JUMPDEST PUSH2 0x747 DUP2 DUP6 PUSH2 0x727 JUMP JUMPDEST SWAP4 POP PUSH2 0x757 DUP2 DUP6 PUSH1 0x20 DUP7 ADD PUSH2 0x403 JUMP JUMPDEST DUP1 DUP5 ADD SWAP2 POP POP SWAP3 SWAP2 POP POP JUMP JUMPDEST PUSH1 0x0 PUSH2 0x76F DUP3 DUP5 PUSH2 0x732 JUMP JUMPDEST SWAP2 POP DUP2 SWAP1 POP SWAP3 SWAP2 POP POP JUMP INVALID LOG2 PUSH5 0x6970667358 0x22 SLT KECCAK256 CREATE 0xB0 0xDC 0xEC 0xE8 0xBA DUP11 0xD3 DUP12 0xA7 TIMESTAMP EQ 0xE 0xF7 0x24 CALLER GASLIMIT SWAP2 LOG2 MOD DUP3 SWAP8 0xD2 PUSH10 0xFACB6223EA7BD686473 PUSH16 0x6C634300080800330000000000000000 "
				},
				"gasEstimates": {
					"creation": {
						"codeDepositCost": "393600",
						"executionCost": "430",
						"totalCost": "394030"
					},
					"external": {
						"addPerson(string,uint256,uint256)": "infinite",
						"nameToId(string)": "infinite",
						"person(uint256)": "infinite",
						"retrieve()": "2437",
						"store(uint256)": "22542"
					}
				},
				"methodIdentifiers": {
					"addPerson(string,uint256,uint256)": "abbc0a8a",
					"nameToId(string)": "f6d8f2cb",
					"person(uint256)": "092a1820",
					"retrieve()": "2e64cec1",
					"store(uint256)": "6057361d"
				}
			},
			"storageLayout": {
				"storage": [
					{
						"astId": 22,
						"contract": "contracts/default_workspace/contracts/SimpleStorage.sol:SimpleStorage",
						"label": "favoriteNumber",
						"offset": 0,
						"slot": "0",
						"type": "t_uint256"
					},
					{
						"astId": 33,
						"contract": "contracts/default_workspace/contracts/SimpleStorage.sol:SimpleStorage",
						"label": "person",
						"offset": 0,
						"slot": "1",
						"type": "t_array(t_struct(People)29_storage)dyn_storage"
					},
					{
						"astId": 37,
						"contract": "contracts/default_workspace/contracts/SimpleStorage.sol:SimpleStorage",
						"label": "nameToId",
						"offset": 0,
						"slot": "2",
						"type": "t_mapping(t_string_memory_ptr,t_uint256)"
					}
				],
				"types": {
					"t_array(t_struct(People)29_storage)dyn_storage": {
						"base": "t_struct(People)29_storage",
						"encoding": "dynamic_array",
						"label": "struct SimpleStorage.People[]",
						"numberOfBytes": "32"
					},
					"t_mapping(t_string_memory_ptr,t_uint256)": {
						"encoding": "mapping",
						"key": "t_string_memory_ptr",
						"label": "mapping(string => uint256)",
						"numberOfBytes": "32",
						"value": "t_uint256"
					},
					"t_string_memory_ptr": {
						"encoding": "bytes",
						"label": "string",
						"numberOfBytes": "32"
					},
					"t_string_storage": {
						"encoding": "bytes",
						"label": "string",
						"numberOfBytes": "32"
					},
					"t_struct(People)29_storage": {
						"encoding": "inplace",
						"label": "struct SimpleStorage.People",
						"members": [
							{
								"astId": 24,
								"contract": "contracts/default_workspace/contracts/SimpleStorage.sol:SimpleStorage",
								"label": "id",
								"offset": 0,
								"slot": "0",
								"type": "t_uint256"
							},
							{
								"astId": 26,
								"contract": "contracts/default_workspace/contracts/SimpleStorage.sol:SimpleStorage",
								"label": "name",
								"offset": 0,
								"slot": "1",
								"type": "t_string_storage"
							},
							{
								"astId": 28,
								"contract": "contracts/default_workspace/contracts/SimpleStorage.sol:SimpleStorage",
								"label": "favoriteNumber",
								"offset": 0,
								"slot": "2",
								"type": "t_uint256"
							}
						],
						"numberOfBytes": "96"
					},
					"t_uint256": {
						"encoding": "inplace",
						"label": "uint256",
						"numberOfBytes": "32"
					}
				}
			},
			"userdoc": {
				"kind": "user",
				"methods": {},
				"version": 1
			}
		}
	}
}